:020000040800F2
:10000000003B002045010008331D0008931800083C
:10001000131C0008430A0008C14E0008000000003D
:10002000000000000000000000000000FD3000089B
:10003000AB12000800000000AB0100087136000898
:100040005F0100085F0100085F0100085F01000810
:100050005F0100085F0100085F0100085F01000800
:100060005F0100085F0100085F0100085F010008F0
:100070005F0100085F0100085F0100085F010008E0
:100080005F0100085F0100085F0100085F010008D0
:10009000B14E00085F0100085F0100085F01000821
:1000A0005F0100085F0100085F0100085F010008B0
:1000B00029400008094100085F0100085F010008AD
:1000C0005F0100085F0100085F0100085F01000890
:1000D0005F0100085F0100085F010008714B000824
:1000E000AD1200085F0100085F0100085F01000811
:1000F0005F0100085F0100085F0100085F01000860
:100100005F0100085F0100085F0100085F0100084F
:100110005F0100085F0100085F0100085F0100083F
:100120005F0100085F0100085F0100085F0100082F
:10013000DFF80CD000F056FC004800474D5900088D
:10014000003B00200648804706480047FEE7FEE7E0
:10015000FEE7FEE7FEE7FEE7FEE7FEE7FEE7FEE777
:10016000DD36000831010008EFF3108072B67047E9
:1001700080F3108870471D484FF0FF010170002088
:1001800080F309881A48012101701A484FF0805104
:10019000016062B6FEE717484FF08051016070477A
:1001A00014484FF080510160704772B6EFF3098038
:1001B00028B1203880E8F00F0F490968086000B5C1
:1001C0000E4880475DF804EB0D480E490A7802702E
:1001D00009480D490A680260106890E8F00F203065
:1001E00080F309884EF0040E62B6704722ED00E0FD
:1001F0008A00002004ED00E090000020E5240008C3
:100200007F0000208000002098000020F0B480EAE9
:100210000102D20F4300B3EB410F02D2034608465E
:1002200019464B0042D0C30DDDB2C1F3C7542C1B9D
:10023000202C35DAC1F3160141F4000502B16D42FC
:10024000C4F1200605FA06F125412844B3EBD05F3E
:1002500023D0C2B1012CA0EBC35009DCF0BC4FF09D
:10026000004202EAC35200F50000DBB200F02ABBF4
:10027000400000F1807000EBC350A0F1807040EAB4
:10028000D170490009E0490841EAC071A0EBC350B0
:1002900000F50000400800EBC350F0BC00F009BBC3
:1002A0005142012303EB4101801AF6E7F0BC70478D
:1002B00081F00041AAE780F00040A7E780EA010250
:1002C00010B502F00042400026D04B0023D04FEA88
:1002D000106101EB1361C0F35600C3F3560340F401
:1002E000000043F40003A0FB0330A1F17F014FEABB
:1002F00000401C0401D000F1010050EA134001D479
:100300004000491EC3B20C0604EBD010401C40084C
:10031000802B02D003E0002010BD20F00100002956
:1003200000DA0020104310BD80EA010202F0004311
:1003300030B430F0004221F0004015D0A0B1C0F33D
:10034000C755C2F3C754C2F31601C0F31600651BAC
:1003500041F4000140F400007D35814201D36D1C61
:1003600000E04900002D02DA30BC002070474FF455
:1003700000020024814201D3091A144352084FEAB3
:100380004101F7D151B1814202D14FF0004105E066
:1003900002D24FF0010101E06FF0010104EBC55002
:1003A00030BC184400F085BA2DE9FE4F074681EABB
:1003B0000300C00F0E46019021F0004123F00044DD
:1003C000B81AA14105D23846314617461E460B469B
:1003D000024623F00040104304D13846314603B0B2
:1003E000BDE8F08F350DC5F30A00C3F30A51029042
:1003F000401A0090402867DAC3F3130040F4801BD2
:100400000198924620B10023D2EB030A63EB0B0B59
:1004100000985946C0F14002504600F019FA804653
:100420000C4650465946009A00F031FAC019714105
:10043000EF1785EA11533B433FD0019A4AB3009A24
:10044000012A11DC0022801A61EB05514FF00043B4
:1004500003EA0555CDE90025801841F58011424693
:10046000234600F06BFABAE72E050025401B61EB2E
:100470000601401941F58012001852412818A6F5CE
:10048000001343EB020140EAD47018EB0808644102
:1004900013E064084FEA38084FF0000244EAC074E1
:1004A0004FEA0553801A61EB0301801841F5801172
:1004B00049084FEA3000801859414246234603B0AC
:1004C000BDE8F04F00F02DBA019801224000002352
:1004D000D0EB020263EBE07301984FEAE074381A44
:1004E00066EB0401EBE783F000435DE781F0004138
:1004F0005AE72DE9FE4F81EA030421F0004504F09C
:10050000004423F000414FF0000A009450EA050334
:1005100002D052EA010304D10020014603B0BDE835
:10052000F08FC1F30A53C5F30A542344A3F2F33303
:100530000193A0FB02B3C5F3130545F4801CC1F37E
:10054000130141F480180CFB023300FB083E810AC2
:10055000930A41EA8C5143EA8853A1FB03474FEACF
:100560009C2505FB03734FEA982601FB06373D05E2
:10057000260545EA1435BBEB06016EEB0503850E37
:10058000920E45EA8C1542EA8812A5FB0206261E49
:1005900067EB00070C0D44EA0334A61947EB135030
:1005A000C1F313044FF000031946E5FB02014FEAC3
:1005B000033545EA1455019B4FEA0432009CA3F130
:1005C0000C03CDE900A445EA060502932B4600F092
:1005D000B5F9A3E72DE9F04D81EA030404F0004BDF
:1005E00021F0004714464FF0000A23F0004150EA82
:1005F000070220D054EA01021DD0C1F30A55024679
:10060000C1F31300C7F30A56C7F3130340F4801174
:1006100043F48013A6EB0508101BD64608F2FD38FC
:1006200073EB010002D308F1010801E092185B416D
:10063000B8F1000F03DA00200146BDE8F08D00207C
:100640004FF48015064607460EE0B2EB040C73EB40
:10065000010C04D3121B064363EB01032F436D0807
:100660004FEA300092185B4150EA050CEDD152EA96
:10067000030012D082EA040083EA0105284303D173
:1006800000224FF0004308E0101B8B4102D20122F0
:10069000002302E06FF0010253101AEB060047EB53
:1006A000085110EB0A0041EB0B01BDE8F04D00F0E2
:1006B00038B9C10F80EAE0700844CA0796230021C8
:1006C00000F000B996230022114600F0FBB80EB5E9
:1006D000C10F80EAE0700844CA07002140F23343AA
:1006E0008DE80E000A460B4600F028F903B000BD65
:1006F00020F00040C10DC0F3160040F400007F2937
:1007000001DA00207047962903DCC1F19601C84048
:100710007047963988407047C1F30A52C1F31301FC
:1007200040F2FF3341F480119A4201DA0020704711
:1007300040F233439A42A2F2334202DC524200F0CA
:1007400096B89040704700F0004230F000400DD065
:10075000C10D01F5607142EA01510022C0F316009B
:10076000520742EAD0024007114370470020014679
:100770007047000030B5002904DB4FF000444042D0
:1007800064EB0101002B04DB4FF00044524264EBA8
:1007900003038B4208BF824230BD000030B5002900
:1007A00004DB4FF00044404264EB0101002B04DB0A
:1007B0004FF00044524264EB0303994208BF904259
:1007C00030BD000001F0004230B421F0004150EA99
:1007D000010306D00B0DA3F56073C1F31301002BC9
:1007E00002DC30BC00207047440F44EAC104C10061
:1007F000A01830BC00EBC35000F05BB8002801DB50
:10080000C0F10040002901DBC1F100418142704785
:10081000002801DBC0F10040002901DBC1F10041EB
:100820008842704730B50B46014600202022012443
:1008300009E021FA02F59D4205D303FA02F5491BAE
:1008400004FA02F52844151EA2F10102F1DC30BDC4
:10085000202A04DB203A00FA02F100207047914080
:10086000C2F1200320FA03F3194390407047202A75
:1008700004DB203A21FA02F00021704721FA02F34A
:10088000D040C2F120029140084319467047202A07
:1008900006DBCB17203A41FA02F043EAE07306E0A8
:1008A00041FA02F3D040C2F12002914008431946B8
:1008B00070470029A8BF7047401C490008BF20F0BE
:1008C0000100704710B4B0FA80FC00FA0CF050EA56
:1008D000010404BF10BC704749B1CCF1200421FAD7
:1008E00004F411FA0CF118BF012121430843A3EBD2
:1008F0000C01CB1D4FEA00614FEA102048BF0020D9
:10090000BCBF10BC704700EBC35010440029A4BF0B
:1009100010BC7047401C490008BF20F0010010BC0B
:10092000704710B5002B08DA401C41F10001921805
:100930005B411A4301D120F0010010BD2DE9FF4DAC
:10094000934611B1B1FA81F202E0B0FA80F220329E
:100950009246FFF77DFF039A0746884640EA0B0060
:1009600011435B46084304D13846414604B0BDE814
:10097000F08D114653EA020016D0CAF140025846E3
:10098000FFF775FF04460D464FF0010658465246E4
:100990000399FFF75DFF084300D10026344345EA81
:1009A000E675274345EA08080E984FF00005A0EBCE
:1009B0000A014FEAD7200A314FEA47532A4640EA54
:1009C00048504FEAD82402D500200146CEE7281827
:1009D00044EB0151DDE90C45001904B06941BDE863
:1009E000F04D9EE7064C074D06E0E06840F001033D
:1009F00094E8070098471034AC42F6D3FFF79CFB0D
:100A0000845C0008A45C00080146002901DD08465A
:100A100070474842FCE710B502F060FE02F0E2F9D0
:100A200002F02EFE01F097F904F02EF903F006FC17
:100A300000F00AF800F05CFC01F056F803F01CF836
:100A400010BD00BFFEE7000000B587B001214806D9
:100A500002F088F90121084602F0A4F948224FF477
:100A600080712C4800F0F9FD18224FF400712948DC
:100A700000F0F3FD01214FF4EA1000F0B5FE264826
:100A800000F0E8F804A800F09CFA00208DF81600A9
:100A900001208DF8170000208DF8180001208DF836
:100AA000190000208DF81A0001208DF81B0000208D
:100AB0008DF812008DF8130002208DF8140001202B
:100AC0008DF815000C20ADF8100004A9124800F0B4
:100AD00072F900208DF80A008DF80B0001208DF8C6
:100AE0000C000020ADF80000ADF80200ADF80400E5
:100AF000ADF80600ADF8080001208DF80D0068463D
:100B000000F0C4F801220221034800F04BF907B0BD
:100B100000BD0000000C01400064004000B585B03D
:100B2000002000908DF808008DF80A008DF80B0069
:100B300000218DF80C108DF80D106A46244800F045
:100B4000C8F90098062840D19DF80D0006283CD130
:100B50009DF80B0005282AD2DFE800F0030D171ED0
:100B600022000A2001F060FC082001F05DFC00205A
:100B700003F0F6F81CE00A2001F05AFB082001F00F
:100B800053FC012003F0ECF812E00A2001F04CFCC9
:100B9000082001F04DFB0BE0052001F049FB00BFF0
:100BA000092001F045FB00200A49087000E000BF61
:100BB00000BF9DF80B00052807DB9DF80B00001F08
:100BC00004490870092001F033FB012005B000BD85
:100BD0000064004052000020F0B585B004460E4687
:100BE000002700250094002001908DF809008DF861
:100BF000080004208DF80A00F0B28DF80B001248AE
:100C000001788DF80C108DF80D40104801788DF8A2
:100C10000E1069460E4800F0E4F9074600E06D1C2E
:100C200039460B4800F070FA012803D040F6FF70F7
:100C30008542F4DB40F6FF70854202DB012005B0FF
:100C4000F0BD0020FBE700004C0000205100002018
:100C50000064004010B504460B48844209D10121CC
:100C6000480602F08FF800214FF0007002F08AF879
:100C700008E00121880602F085F800214FF080602D
:100C800002F080F810BD00000064004010B50021A3
:100C9000837A012202FA03F13B4A126842F0010210
:100CA0003A4BC3F800261A46D2F81C2622EA010263
:100CB000374B1A60027BB2B9364A126822EA010247
:100CC000344B1A604288C38842EA0343324A847A2A
:100CD00042F834300288838842EA03432E4A847AF9
:100CE00002EBC4025360027B012A16D1294A126822
:100CF00042EA0102274B1A604288038842EA034312
:100D0000254A847A42F83430C288838842EA034311
:100D1000214A847A02EBC4025360C27A3AB91F4A6C
:100D2000126822EA0102194BC3F8042606E01B4AA6
:100D3000126842EA0102154BC3F80426028932B94F
:100D4000174A126822EA0102104BC3F814260289DE
:100D5000012A06D1124A126842EA01020B4BC3F87B
:100D60001426427B012A06D1094A126842EA01028E
:100D7000064BC3F81C26044A126822F00102034BFA
:100D8000C3F8002610BD000000660040006000406F
:100D90001C6600400C66004040660040046600404F
:100DA000146600401AB143690B43436102E0436992
:100DB0008B434361704730B502460020002314681E
:100DC00024F002041460146844F00104146000E08C
:100DD0005B1C546804F00104012C03D0A3F57F448C
:100DE000FF3CF5D1546804F00104012C01D000202F
:100DF0006EE08C79012C04D1146844F080041460F6
:100E000003E0146824F080041460CC79012C04D130
:100E1000146844F04004146003E0146824F04004B3
:100E200014600C7A012C04D1146844F0200414607E
:100E300003E0146824F0200414604C7A012C04D1DF
:100E4000146844F01004146003E0146824F01004E3
:100E500014608C7A012C04D1146844F008041460E6
:100E600003E0146824F008041460CC7A012C04D147
:100E7000146844F00404146003E0146824F00404CB
:100E800014608C78A407CD7844EA05640D7944EAAF
:100E900005444D7944EA05540D886D1E2C43D461F8
:100EA000146824F001041460002300E05B1C546803
:100EB00004F00104012C03D1A3F57F44FF3CF5D1DC
:100EC000546804F00104012C01D1002000E001204D
:100ED00030BD10B500F5D87303EB01131B6803F0A8
:100EE00004031372137A53B900F5D87303EB01139B
:100EF0001B6840F2FF7404EA5353136009E000F5E5
:100F0000D87303EB01131B686FF0604404EAD3034A
:100F1000536000F5D87303EB01131B6803F0020361
:100F2000537200F5D87303EB01135B6803F00F03F2
:100F3000937200F5D87303EB01135B681B0AD3743B
:100F400000F5D87303EB01139B68D37200F5D873D7
:100F500003EB01139B681B0A137300F5D87303EBB3
:100F600001139B681B0C537300F5D87303EB01133B
:100F70009B681B0E937300F5D87303EB0113DB68BA
:100F8000D37300F5D87303EB0113DB681B0A1374EA
:100F900000F5D87303EB0113DB681B0C537400F5E9
:100FA000D87303EB0113DB681B0E937421B9C3687C
:100FB00043F02003C36003E0036943F020030361AF
:100FC00010BD00218171C171017241728172C172C3
:100FD0008170C170032101710221417101210180E1
:100FE000704710B502460020936803F08063B3F1A8
:100FF000806F00D110E0936803F00063B3F1006FDD
:1010000001D1012008E0936803F08053B3F1805FC1
:1010100001D1022000E00420042874D002F5C0733E
:1010200003EB00131B6803F0010402F5C07303EB2C
:1010300000131C600B7A7BB94B7A0C6843EA44536B
:1010400002F5C07404EB00142468234302F5C07455
:1010500004EB0014236010E00B7A4C6843EAC403ED
:101060004C7A234302F5C07404EB00142468234334
:1010700002F5C07404EB001423608B7A03F00F03B5
:101080008B7202F5C07303EB00135B6823F00F044F
:1010900002F5C07303EB00135C6002F5C07303EB51
:1010A00000135B688C7A234302F5C07404EB0014D0
:1010B00063608B7B1C064B7B44EA03440B7B44EA56
:1010C0000323CC7A234302F5C07404EB0014A3601D
:1010D0008B7C1C064B7C44EA03440B7C44EA0323D0
:1010E000CC7B234302F5C07404EB0014E36002F5EB
:1010F000C07303EB00131B6843F0010402F5C073D7
:1011000003EB00131C6010BD10B50246002321B193
:10111000012907D002290FD109E090681D4C00EA8F
:1011200004030BE090681C4C00EA040306E090689E
:101130001A4C00EA040301E0002300BF00BF184C72
:10114000181BA34216D007DC83B16FF0806018181B
:101150000ED0022818D111E0B0F5007F10D0114C4C
:10116000001909D0B0F5003F0ED10BE002230DE0CD
:1011700000230BE0002309E0002307E0012305E042
:10118000012303E0012301E0002300BF00BFD8B228
:1011900010BD00000300000400030008000003105D
:1011A000000100080001FFF770B500240EE02146A1
:1011B000002000F0DEFC002504E0002002F020F812
:1011C000681CC5B2802DF8DB601CC4B2082CEEDBB5
:1011D00070BD000010B508221749184801F08FFFB4
:1011E00008221749174801F08AFF082216491748B4
:1011F00001F085FF1148408810498988401AC828A5
:1012000012DD104840880F498988401AC8280BDD34
:101210000E4840880D498988401AC82804DD0C48CA
:101220000078401C0A490870C82300221146104665
:1012300001F092F910BD00003400002020050020CC
:101240003C0000202C050020440000203805002030
:101250005000002070B505460E46002400BF1CE07B
:10126000601C35F8100035F81410884208DD601C49
:1012700035F8100035F81410401A25F814000AE06B
:10128000601C35F8100035F814104FF6FF72511A33
:10129000084425F81400601CC4B2701EA042DFDCB4
:1012A0003146284600F0B7FC70BD704710B500F01D
:1012B000D7FD4FF4805000F047F898B100BF0020F0
:1012C00020B10221094800F0E2FA03E002210748B8
:1012D00000F0DBFA00BF062000F0AAFF4FF48050B8
:1012E00000F00EF800F0CEFD10BD0000000C014033
:1012F00010B5012308220C21002000F007F810BDD2
:101300000149086070470000140401402DE9FC41C8
:1013100007460C4615461E460121084601F042FDCF
:101320002146384600F0B6F90120A0400090002088
:101330008DF804008DF805508DF80660684600F0C1
:101340000FF8BDE8FC81000001460020034A126846
:101350000A4201D0012000E000207047140401403F
:10136000002127498279DAB3264AD2F8002403689B
:101370009A43244BC3F800241A46D2F80424036885
:101380009A4301F104031A60027911440A68036860
:1013900042EA03020A601B4AD2F80824036822EAE0
:1013A0000302184BC3F808241A46D2F80C24036829
:1013B00022EA0302144B1A604279102A11D1114A11
:1013C000D2F8082403681A430E4BC3F808241A46BF
:1013D000D2F80C2403681A430A4BC3F80C240EE01D
:1013E00007E00749427911440A6803681A430A6012
:1013F00005E0027911440A6803689A430A6070475D
:1014000000040140000001400C0401400149C86093
:10141000704700000020024030B5044604254FF418
:10142000302000F09FF80546042D17D10C480069C4
:1014300040F002000A49086108464461006940F032
:10144000400008614FF4302000F08CF80546044855
:10145000006941F6FD71084001490861284630BD28
:101460000020024004200C49C96801F00101012953
:1014700001D101200EE00849C96811F0040F01D024
:10148000022007E00449C96811F0100F01D00320C1
:1014900000E00420704700000020024004200C49B6
:1014A000C96801F00101012901D101200EE00849BC
:1014B000C96811F0040F01D0022007E00449C9688F
:1014C00011F0100F01D0032000E00420704700004D
:1014D000002002400348006940F080000149086193
:1014E0007047000000200240F0B504460D46042677
:1014F0000027F00200F036F80646042E22D11248EA
:10150000006940F00100104908612580F00200F0F8
:1015100029F80646042E0ED1A71C280C3880F002AC
:1015200000F020F806460848006941F6FE710840C0
:101530000549086106E00448006941F6FE7108406B
:10154000014908613046F0BD0020024002480349CD
:101550004860034848607047230167450020024007
:10156000AB89EFCD00B502460423FFF77BFF0346AE
:1015700003E0FFF777FF0346521E012B01D1002A3B
:10158000F7D102B90523184600BD10B50446422C18
:1015900013D0472C0AD04E2C16D0522C1BD1002031
:1015A00002F012FC002002F01FFC15E0012002F006
:1015B0000BFC012002F018FC0EE0002002F004FCFD
:1015C000012002F011FC07E0012002F0FDFB0020E9
:1015D00002F00AFC00E000BF00BF10BD2DE9F041A1
:1015E00005460E462C46002713E0FFF7AFFF3520D7
:1015F000FFF70CFF802C02DD0020BDE8F0814FF0EA
:10160000006101EB8420FFF707FF641CFFF762FF16
:101610007F1CB742E9DB0120EFE770B504460D46B9
:10162000FFF794FF3420FFF7F1FEA4F10060802162
:10163000B1EB902F01D2002070BD29462046FFF764
:1016400053FF00BFFFF72AFF0128FBD02020FFF740
:10165000DDFEFFF73FFF0120EEE7F8B504460D463B
:101660001646A4F5E717F91707EB91518A120421E2
:1016700001FA02F0012101F095FBADF800508DF860
:10168000036003208DF802006946204600F022F82E
:10169000F8BD000030B500228B071C0F0F2303FAA2
:1016A00004F20B4B8C1053F824309343084C8D10EC
:1016B00044F8253023468C1053F824308C07240F2F
:1016C00000FA04F42343024C8D1044F8253030BD59
:1016D000080001402DE9F0410246002500260020C7
:1016E00000230024002791F803C00CF00F0591F8A7
:1016F00003C01CF0100F03D091F802C04CEA05059E
:10170000B1F800C01CF0FF0F31D0146800202BE0AE
:101710004FF0010C0CFA00F3B1F800C00CEA03061C
:101720009E4220D183004FF00F0C0CFA03F7BC430C
:1017300005FA03FC4CEA040491F803C0BCF1280F3D
:1017400006D14FF0010C0CFA00FCC2F814C00AE0FC
:1017500091F803C0BCF1480F05D14FF0010C0CFA11
:1017600000FCC2F810C0401C0828D1D31460B1F8A6
:1017700000C0BCF1FF0F34DD546800202EE000F102
:10178000080C4FF0010808FA0CF3B1F800C00CEA9D
:1017900003069E4221D183004FF00F0C0CFA03F791
:1017A000BC4305FA03FC4CEA040491F803C0BCF105
:1017B000280F05D100F1080C08FA0CF8C2F81480C3
:1017C00091F803C0BCF1480F07D100F1080C4FF0AD
:1017D000010808FA0CF8C2F81080401C0828CED383
:1017E0005460BDE8F0810000F0B50A4600230024F3
:1017F0000021002500F00046B6F1004F02D11D4E39
:10180000F16901E01B4E7168C0F3034583B200F437
:101810004016B6F5401F08D121F07061154E76686C
:1018200026F07066134F7E6012E000F48016B6F565
:10183000801F06D1032606FA05F4A14341F070612A
:1018400006E0460D360103FA06F6B14341F0706139
:1018500022B1460D360103FA06F6314300F0004688
:10186000B6F1004F02D1034EF16101E0014E71600B
:10187000F0BD0000000001400246002093680B42CA
:1018800001D0012000E000207047416170470161F4
:10189000704700BFFEE700002DE9F04F85B000263D
:1018A00000200490002780468246834603900290E1
:1018B000019004223F49404801F021FC3E484788FE
:1018C00004223E493E4801F01AFC3D48B0F802802F
:1018D00004223C493C4801F012FC3B48B0F802A00D
:1018E00097FBF8F42046FEF7E4FE039098FBFAF429
:1018F0002046FEF7DEFE029097FBFAF42046FEF744
:10190000D8FE0190012637E0304951F826000399AE
:10191000FEF7CEFC0090FEF716FF21F000410446D2
:101920002B4A2C4BFEF726FF24D82B4951F82600D2
:101930000299FEF7BDFC0090FEF705FF21F0004183
:101940000446234A234BFEF715FF13D8234951F8C9
:1019500026000199FEF7ACFC0090FEF7F4FE21F0A2
:10196000004104461A4A1B4BFEF704FF02D81C48EC
:10197000067003E0701CC6B2072EC5DB00BF4745EA
:1019800003DDC346DFF85C9002E0BB46DFF8589009
:101990001648A0F800B01248007800EB400009EBB0
:1019A000800494E8070003F049FC0490049805B013
:1019B000BDE8F08F34000020200500203C0000200E
:1019C0002C0500204400002038050020440500209C
:1019D0009A9999999999A93F600500207C05002062
:1019E000510000207804002024040020540000202E
:1019F00010B50024142300221146104600F0ACFD5F
:101A000000BF00BF4FF480511348FFF735FF90B976
:101A1000322300221146104600F09EFD4FF4805103
:101A20000D48FFF729FF30B9092000F001FC002024
:101A30000A4908700EE0142C03D1052000F0F8FBD1
:101A400008E0322300221146104600F085FD601C9C
:101A5000C4B2D7E700BF10BD00080140520000200B
:101A600070B586B004460D46164601A9204603F01F
:101A7000D9FE3246294601A800F06AF8202000F07D
:101A80008FF806B070BD70B586B004460D46164698
:101A900001A9204603F02AFF3246294601A800F09A
:101AA00057F8202000F07CF806B070BD10B5102269
:101AB00011020C48FFF7D1FD102251020948FFF72F
:101AC000CCFD102291020748FFF7C7FD1022D1027A
:101AD0000448FFF7C2FD102220210248FFF7BDFD98
:101AE00010BD0000000C014010B5FFF7DFFF4FF400
:101AF00080511648FFF7C9FE4FF480511348FFF795
:101B0000C6FEE22001F04AFB2C2001F047FB2E200C
:101B100001F044FB2F2001F041FB232001F03EFBAC
:101B2000812001F03BFB282001F038FBA22001F0CE
:101B300035FBC82001F032FBA02001F02FFBAF20C5
:101B400001F02CFBFFF730FB10BD0000000C014042
:101B500070B504460D4616463146284600F009F891
:101B600003E014F8010B00F01BF820780028F8D1EE
:101B700070BD70B504460D4604EB44004006040EEB
:101B800005F1B001C8B201F009FB102101EB2410EE
:101B900001F004FB04F00F0001F000FB70BD000039
:101BA00070B50446A4F12000C4B2002508E004EB9F
:101BB0008401064A1144485D01F022FB681CC5B24D
:101BC000052DF4DB002001F01BFB70BD85590008DA
:101BD00070B50546002400BF18E00120A04028424F
:101BE00009D1002002F09AF8002001F033FF012013
:101BF00001F030FF08E0012002F090F8002001F031
:101C000029FF012001F026FF601CC4B2032CE4DD93
:101C100070BD00BFFEE72DE9F04102460D460027EA
:101C20000026002316E0581CC4B20FE032F813005F
:101C300032F81410884207DD32F8137032F81400BD
:101C400022F8130022F81470601CC4B2AC42EDDB21
:101C5000581CC3B2681E9842E5DC0023002413E040
:101C600005EBD571491032F8111032F813C0ACEB06
:101C70000100FEF7C9FE1E2804DC32F813000644FA
:101C8000601CC4B2581CC3B2AB42E9DBB6FBF4F62D
:101C9000B0B2BDE8F08170B502460B4600250021C8
:101CA00016E0481CC4B20FE032F8110032F814609C
:101CB000B04207DD32F8115032F8140022F811005A
:101CC00022F81450601CC4B29C42EDDB481CC1B227
:101CD000581E8842E5DC1E4603EBD370401032F8F4
:101CE000100070BD70B502460B460025002116E0BD
:101CF000481CC4B20FE052F8210052F82460B042F0
:101D000007D952F8215052F8240042F8210042F835
:101D10002450601CC4B29C42EDDB481CC1B2581E6A
:101D20008842E5DC1E4603EBD370401052F82000D9
:101D300070BD7047F8B506460C4615468DF8006034
:101D40008DF801408DF8025001208DF8030068469F
:101D500000F026F8F8BD10B54FF4A06000F062F86E
:101D6000032202212720FFF7E5FF0022114614205D
:101D7000FFF7E0FF032200212820FFF7DBFF00220E
:101D800001211C20FFF7D6FF012211461D20FFF77D
:101D9000D1FF022201211E20FFF7CCFF10BD000061
:101DA00070B5002100230F22C4784CB31A4C24686C
:101DB00004F4E064C4F5E0644FEA1421C1F10403C3
:101DC00022FA01F2447804FA03F1847804EA020466
:101DD00044EA01014FEA0111104C0678A15504783C
:101DE00004F01F054FF0010404FA05F405784FEAEA
:101DF00065154FF0E02606EB8505C5F8004109E0C2
:101E0000047804F01F050124AC40054D06787611D6
:101E100045F8264070BD00000CED00E000E400E055
:101E200080E100E002490143024A1160704700006E
:101E30000000FA050CED00E010B500F00FF800F01E
:101E40000DFD00F035FD00F057FD00F0DFFC00F067
:101E500087FD00F0ADFD00F002F810BD704770473F
:101E600006480078012808D105480078FF2804D2E8
:101E700003480078401C0249087070478A0000201F
:101E80007D00002010B500241A480078012830D1C8
:101E9000FEF76AF9044618480078002804DD164861
:101EA0000078401E1449087013480078F0B91348B0
:101EB0000078D8B900F0E8FD114800781149097898
:101EC000884213D010480E49097850F821000F4974
:101ED000086008460068006B401C096808630C48ED
:101EE0000068401C0A490860FEF75AF92046FEF7D0
:101EF0003FF910BD8A0000207D0000207E000020F8
:101F0000800000207F000020002100209800002099
:101F10006800002070B505460026124800780028A9
:101F200001DD002070BDFEF71FF906460E4804686B
:101F3000006820B10C48006840680B4908603046D2
:101F4000FEF716F95CB10320207025810020606047
:101F50003F20E07400212175204600F048FC204617
:101F6000E0E700007D0000206C00002070B5044612
:101F700000250CB9042070BD2078032801D0012071
:101F8000F9E7FEF7F1F80546A07A60B100230122D7
:101F90001946204600F0AEFB2846FEF7E9F800F0AF
:101FA00039FD0020E7E720894FF6FF71884207D20C
:101FB0002089401C20812846FEF7DAF80020DAE765
:101FC0002846FEF7D5F83220D5E7000010B50B48BB
:101FD000007890B900F058FD094800780949087068
:101FE00009480749097850F821000849086008465F
:101FF000006807490860FEF7BEF810BD8A0000209F
:10200000800000207F000020002100209800002098
:1020100090000020704700002DE9FE4F06460F4655
:1020200090461C464FF000093F2C02DD2A20BDE8F7
:10203000FE8FFEF799F881461E480078002804DDDF
:102040004846FEF795F83C20F1E71B4850F824007D
:1020500058BB0120184941F824004846FEF788F88B
:10206000002342463946304600F090F9824600236C
:10207000009301931A4651462046029300F032FD28
:10208000054635B90D48007801280CD100F0C2FC96
:1020900009E0FEF769F881460020074941F824006D
:1020A0004846FEF765F82846C1E74846FEF760F85F
:1020B0002820BCE77D000020002100208A000020AD
:1020C0002DE9FF4F85B08046894692461C46DDE9E2
:1020D00012B6169F002003903F2C03DD2A2009B082
:1020E000BDE8F08FFEF740F8039022480078002802
:1020F00004DD0398FEF73CF83C20F0E71E4850F85A
:10210000240088BB01201C4941F824000398FEF7F5
:102110002FF83A463046149900F0EEFD3B46524601
:102120004946404600F032F90490DDE914125B465E
:102130008DE8860032462046049900F0D3FC05461F
:1021400035B90E48007801280CD100F063FC09E095
:10215000FEF70AF803900020074941F8240003988D
:10216000FEF706F82846BAE7FFE70398FEF700F8FF
:102170002820B4E77D000020002100208A000020F4
:10218000704770472DE9F04705460F4614464FF05B
:1021900000090CB9BDE8F0873F2D04DDFF2D02D00A
:1021A0002A202070F6E717B90C202070F2E71D48AE
:1021B0000078002802DD12202070EBE7FDF7D4FF45
:1021C0008146FF2D03D11848006890F82850174821
:1021D00050F825602EB94846FDF7CAFF432020700D
:1021E000D8E7012E05D14846FDF7C2FF43202070F5
:1021F000D0E7384600F06CFC8046B8F10F0F05DDE3
:102200004846FDF7B5FF41202070C3E7394606F187
:10221000440000F04FFC4846FDF7AAFF0020207064
:1022200000BFB7E77D0000209000002000210020C3
:1022300070B5054600263F2D01DB2A2070BDFDF755
:1022400093FF0646244850F8254024B93046FDF750
:102250008FFF4620F2E7012C04D13046FDF788FFBE
:102260004320EBE794F8260010F0080F2FD014F865
:10227000260F20F00800207014F8260910BBA08C4F
:10228000E0B904F12A04A0781449097840EA010071
:102290001249087020781249085C617840EA010010
:1022A00014F82A190E4A50543046FDF761FF0D48C4
:1022B0000078012809D100F0ADFB06E03046FDF7BB
:1022C00057FF02E03046FDF753FF0020B6E73046E7
:1022D000FDF74EFF4420B1E70021002081000020DF
:1022E000820000208A000020704700002DE9F0479E
:1022F00006460C464FF0000A3F2E04DDFF2E02D0AA
:102300002A20BDE8F0870CB90920FAE700202060F8
:102310006060FDF729FF8246FF2E03D1194800684F
:1023200090F82860184850F8265025B95046FDF717
:102330001FFF4320E5E7012D04D15046FDF718FFAC
:102340004320DEE7288A10F0010F04D15046FDF744
:102350000FFF4520D5E70027D5F80C90D5F8088069
:102360005046FDF705FF00E07F1C58F8041B0029CC
:10237000FAD0B8002060A9EB070080006060002060
:10238000BFE70000900000200021002070B5044647
:1023900010464FF080750560051F28462C606FF0D1
:1023A0000106051F28462E604FF01236051F2846ED
:1023B0002E604FF00336051F28462E604FF0023680
:1023C000051F28462E607610051F28462E60051F23
:1023D000284629604FF01136051F28462E604FF021
:1023E0001036051F28462E604FF00936051F284677
:1023F0002E604FF00836051F28462E604FF0073636
:10240000051F28462E604FF00636051F28462E6011
:102410004FF00536051F28462E604FF00436051F85
:1024200028462E6070BD00002DE9F04105464FF0B2
:1024300000083F2D02D14720BDE8F0813F2D03DB8E
:10244000FF2D01D02A20F7E7FDF78EFE8046FF2DF5
:1024500005D12048006890F82850012608E01D4862
:10246000006890F82800A84201D1012600E000266B
:10247000194850F8254024B94046FDF779FE482018
:10248000DAE7012C04D14046FDF772FE4320D3E782
:1024900094F82A701148C05D94F82B1088430F49B6
:1024A000C8550846C05D30B994F82C100C48007827
:1024B00088430B49087094F8260040F0080084F81F
:1024C00026004046FDF754FE012E01D100F0A2FA8D
:1024D0000020B1E7900000200021002082000020B1
:1024E000810000207047000070B5054600261648A0
:1024F0000078002800DD70BD002D23DDFDF734FEDF
:1025000006461248006890F82A401148005D0F49BD
:10251000096891F82B1088430D4908550846005D5D
:1025200040B90A48006890F82C100A48007888439F
:10253000084908700548006885843046FDF718FE94
:1025400000F068FA00BFD6E77D0000209000002070
:1025500082000020810000202DE9F04781460D46D1
:1025600016461C4624480078002802DD5520BDE8A8
:10257000F087B9F1000F04D11DB916B90CB9542078
:10258000F5E73B2D01DD5120F1E73B2E01DD522027
:10259000EDE7B4F57A7F01DB5320E8E74FF47A707A
:1025A00060434FF47A71B0FBF1F14FF4616009FBC5
:1025B00000F0C5EB051200EB8200304400EB400256
:1025C000C2EBC01001EBC0074FEA1748BFB2384654
:1025D000FFF78AFF0BE04FF40040FFF785FF4FF451
:1025E0000040FFF781FFA8F101001FFA80F8B8F161
:1025F000000FF0DC0020BAE77D00002070B5002657
:1026000000F076F8FDF7B0FD064633480068401C40
:10261000314908603046FDF7ABFD304800780128AD
:1026200058D12F48007820B1012804D0022809D1C0
:1026300003E001250BE0002509E0012501202849E0
:10264000087004E0012500202549087000BF00BF84
:1026500005B970BD2348046838E0FDF785FD0646DE
:10266000A08C78B3A08C401E0004000CA08429D15B
:1026700094F8260010F0370F09D014F8260F20F038
:102680003700207001206070A4F1260402E00020D1
:1026900084F8270094F8260010F0080F12D104F1F6
:1026A0002A04A0781049097840EA01000E49087010
:1026B00020780E49085C617840EA010014F82A1974
:1026C0000A4A505464693046FDF752FD94F82800D8
:1026D0003F28C2D100BFBCE7A40000208A00002030
:1026E000A00000209C00002081000020820000202B
:1026F000704700002DE9F04F05460F469046994679
:10270000A87A1D490E5C05F10B00805D11F800B040
:102710000BEBC60000F0FF0A184850F82A400020D2
:1027200024F8240F00BFA07820EA0800A07084F8E5
:102730000390A078A4F1240410F0080F0DD194F8B0
:102740002C000F49097808430D4908700D48805D39
:1027500094F82B1008430B4988552946204600F071
:1027600013F8206A20B12046216A00F022F8E561C2
:102770005046BDE8F08F0000825B00080021002079
:10278000810000208200002010B590F82A2001F17D
:102790000B039B5C90F82B40A34301F10B04A35463
:1027A00023469B5C23B98B7A90F82C40A3438B7211
:1027B00010BDF0B5024612F82A4F95785678A2F16E
:1027C0002A020B4618680FE000F10B073F5DB74384
:1027D00000F10B0C0CF8047067463F5D17B9877A5F
:1027E000AF4387721B1D18680028EDD1F0BD002390
:1027F000837200F10B01002204E0002301F8013B89
:10280000531CDAB2082AF8DB7047000030B54FF4E9
:10281000B471104800F0F4F80E4B03F124050024C5
:102820000AE0002018705D603F20D87400211975FF
:1028300024332435601C84B2092CF2DB002018708C
:1028400058603F20D8740021197502480249086079
:1028500030BD0000981B00206C00002000200A49B9
:1028600008600A4908700A4908700A4908700A494C
:1028700008700A4908600A4908600A4908600A495C
:1028800008600A4908707047A40000207D000020FD
:102890007E0000208B0000208A00002068000020BD
:1028A0008C00002078000020740000207C000020B4
:1028B00000220B4B1A700B49002004E0002201F8A3
:1028C000012B421CD0B20828F8DB0022064B1A70FC
:1028D000064B1A70064B1A60064B1A6070470000D0
:1028E00081000020820000207F0000208000002066
:1028F000980000209000002030B54FF4A8511448F3
:1029000000F07EF84FF48071124800F079F8104B17
:1029100003F1540500240AE05D613F2083F8440080
:1029200000214520C15454335435601CC4B23F2C9F
:10293000F2D3002058613F2083F844000021452055
:10294000C15400200449086001480449086030BDB2
:1029500000220020002100209C0000209400002084
:1029600000B587B00323002280210B48CDE9032363
:10297000CDE901014FF6FF7300933F2300F5FE728E
:1029800000210648FFF79CFB06AA05A13F20FFF7A0
:10299000F9FB07B000BD0000001F0020112C00084B
:1029A00075432F4F532D49492049646C6500000041
:1029B00000B587B00323002280210B48CDE9032313
:1029C000CDE901014FF6FE7300933E2300F5FE7240
:1029D00000210648FFF774FB06AA05A13E20FFF779
:1029E000D1FB07B000BD0000001D0020352C000801
:1029F00075432F4F532D49492053746174000000D3
:102A000004E0002200F8012B4A1E91B20029F8DCF4
:102A10007047000010B50024FDF7A6FB04461348DC
:102A20000078F0B912480078D8B900F02DF81148B4
:102A3000007811490978884213D010480D49097867
:102A400050F821000E49086008460068006B401CE1
:102A5000096808630B480068401C0A490860FDF7D4
:102A60009AFB2046FDF784FB10BD00007D0000208E
:102A70007E000020800000207F0000200021002038
:102A800098000020680000200649074A1278885CF8
:102A90000649095C034A515C01EBC001044A11700C
:102AA00070470000825B0008810000208200002047
:102AB000800000200246002005E011F8013B02F8EA
:102AC000013B431CD8B20B78002BF6D11370704732
:102AD0000146002002E0491C421CD0B20A78002ABC
:102AE000F9D170472DE9F84F05460E46174698462E
:102AF000DDE90BABDDF8289000200090FDF734FBFA
:102B000000903D480468F4B354F8140F3A49086043
:102B10000098FDF72DFB44F8146C25750020A07477
:102B2000E074208244F810AC44F8089C44F80C7C13
:102B300024F804BC24F8028C6076E810A07505F037
:102B400007006075A17D012088402076617D01200D
:102B50008840E0750020A060E060E0616062206273
:102B6000A062E0623F2084F83000A4F114044FF02A
:102B700000014FF0450001552046FFF74BFA204673
:102B8000FFF7FEFA00E031E0FDF7EEFA00901B4897
:102B900040F825401A48006860610020A06118488C
:102BA000006810B11648006884611548046004F19B
:102BB0002A04A0781349097840EA010011490870F5
:102BC00020781149085C617840EA010014F82A195C
:102BD0000D4A50540D48007800F101000B4908706F
:102BE0000098FDF7C5FA0020BDE8F88F0098FDF7C2
:102BF000BFFA4220F8E700009400002000210020E6
:102C00009C00002081000020820000208B0000201A
:102C1000002400BFFDF7A8FA044605480068401CE0
:102C2000034908602046FDF7A3FAFFF7AAFAF1E787
:102C30008C000020002402E0C820FFF755FC1A4851
:102C400000780028F8D0194800686421B0FBF1F042
:102C5000164908600846006828B900201449087021
:102C6000FF20FFF7E1FB00BFFDF77EFA04461148A5
:102C700000681149086000200E4908602046FDF7F1
:102C800077FA0D48006809490968B0FBF1F0C0F116
:102C9000640007490870FFF727FB00F00FF8642075
:102CA000FFF722FCE0E700007C0000207400002019
:102CB000700000208C000020780000207CB50025EA
:102CC00014E069462846FFF711FB064666B9094835
:102CD00050F8254044B1012C06D0D4E9020100EBA4
:102CE0008100E06301982064681CC5B23F2DE8DDD7
:102CF0007CBD00000021002012F0010F08D012F06E
:102D0000020F05D002E0491E002308C00029FAD1B5
:102D1000704710B5044634B1022C0BD0142C10D0DF
:102D2000642C1CD114E0002001F02AF8002001F0EE
:102D300039F815E0002001F023F8012001F032F805
:102D40000EE0012001F01CF8002001F02BF807E054
:102D5000012001F015F8012001F024F800E000BF87
:102D600000BF10BD29B1064AD2690243044BDA61A3
:102D700004E0034AD2698243014BDA6170470000E4
:102D80000010024029B1064A12690243044B1A613D
:102D900004E0034A12698243014B1A617047000044
:102DA0000010024029B1064A92690243044B9A611D
:102DB00004E0034A92698243014B9A617047000024
:102DC0000010024029B1064AD2680243044BDA607F
:102DD00004E0034AD2688243014BDA607047000086
:102DE0000010024010B500F02FF84FF4803000F0D2
:102DF000EDF800F049F90446012C1ED1002000F046
:102E0000D9F8002000F014F9A00200F005F94FF401
:102E1000E011200400F01EF9012000F015F900BFB8
:102E2000392000F0A1F80028FAD0022000F020F9A3
:102E300000BF00F0B7F80828FBD1012140F2FD10D7
:102E4000FFF7B0FF10BD00000F48006840F0010020
:102E50000D490860084640680C4908400A49486026
:102E6000084600680A4908400749086008460068A3
:102E700020F4802008600846406820F4FE00486086
:102E80004FF41F0088607047001002400000FFF8F8
:102E9000FFFFF6FE30B500210022002400232D4D57
:102EA0006D6805F00C0121B1042905D0082923D152
:102EB00005E0294D056022E0274D05601FE0254D06
:102EC0006D6805F47012234D6D6805F48034022599
:102ED00005EB92421CB9214D554305600BE01D4D99
:102EE0006D6815F4003F03D01C4D5543056002E0AA
:102EF000194D5543056002E0174D056000BF00BF46
:102F0000144D6D6805F0F0010909154D6B5C0568FD
:102F1000DD4045600F4D6D6805F4E061090A104D14
:102F20006B5C4568DD4085600A4D6D6805F4605155
:102F3000C90A0B4D6B5C4568DD40C560054D6D6889
:102F400005F44041890B074D6B5CC568B5FBF3F593
:102F5000056130BD0010024000127A0000093D00FA
:102F6000090000201900002010B5014600220023AE
:102F700000204A11012A02D1094C236806E0022AE6
:102F800002D1074C236A01E0054C636A01F01F027D
:102F9000012494401C4201D0012000E0002010BD1B
:102FA000001002400248406800F00C00704700002A
:102FB0000010024001460020034A506820F0F00053
:102FC0000843506070470000001002401149096832
:102FD00021F480310F4A11601146096821F48021E3
:102FE0001160B0F5803F03D0B0F5802F0ED106E020
:102FF0000849096841F48031064A116007E0054933
:10300000096841F4A021034A116000E000BF00BF3D
:10301000704700000010024001460020034A50683B
:1030200020F4E06008435060704700000010024048
:1030300001460020034A506820F4605040EAC10075
:103040005060704700100240014908667047000058
:103050000000424202460020044B586820F47C10D5
:1030600042EA01031843014B5860704700100240C8
:1030700001460020034A506820F0030008435060D6
:10308000704700000010024070B5002400250026A3
:1030900000BF3120FFF768FF0646641CB4F5A06F3F
:1030A00001D0002EF5D03120FFF75EFF08B10125D9
:1030B00000E00025284670BD0246002001B901E06D
:1030C00001FB02F0704710B502460023A1F1006039
:1030D0008024B4EB902F01D2002010BD082A04D028
:1030E000102A04D0202A06D103E00B7803E00B88D5
:1030F00001E00B6800BF00BF1846EEE77047F0B56F
:1031000087B003460C4600200021002500260396C8
:1031100004960596069600BF06E034F8106003AFEB
:1031200027F81060461CF0B29042F6DB00201BE04E
:10313000461CF1B214E003AE36F8106003AF37F866
:103140001170BE420ADD03AE36F8105036F8116039
:1031500003AF27F8106003AE26F811504E1CF1B2F1
:103160009142E8DB461CF0B2561E8642E0DCBDF818
:103170001A60ADF80260BDF81070BDF812C007EB20
:103180000C0606EBD677C7F34F07ADF804709DE841
:10319000C01083E8C01007B0F0BD000070B5044651
:1031A00020211648FEF771FB4FF480411348FEF7CB
:1031B0006CFB00251BE04FF400511048FEF765FB47
:1031C00014F0800F05D04FF400410C48FEF75FFB70
:1031D00004E04FF400410948FEF757FB4FF400515B
:1031E0000648FEF754FB6006040E681CC5B2082DA5
:1031F000E1DB20210148FEF74AFB70BD000C0140D5
:1032000070B5044620211648FEF73FFB4FF480417D
:103210001348FEF73CFB00251BE04FF4005110481B
:10322000FEF733FB14F0800F05D04FF400410C483B
:10323000FEF72DFB04E04FF400410948FEF725FBA3
:103240004FF400510648FEF722FB6006040E681C8E
:10325000C5B2082DE1DB20210148FEF718FB70BD47
:10326000000C014010B500F001F810BD0021002055
:103270002E4A126842F480322C4B1A6000BF2B4A4F
:10328000126802F40030491C10B9B1F5A06FF6D1F4
:10329000264A126812F4003F01D0012000E000200D
:1032A000012842D1224A126842F01002204B1A60D3
:1032B0001A46126822F003021A601A46126842F097
:1032C00002021A60194A5268184B5A601A4652682C
:1032D0005A601A46526842F480625A601A4652682E
:1032E00022F47C125A601A46526842F4E8125A607C
:1032F0001A46126842F080721A6000BF0B4A1268C8
:1033000012F0007FFAD0094A526822F00302074BFC
:103310005A601A46526842F002025A6000BF034ADD
:10332000526802F00C02082AF9D1704700100240DE
:103330000020024070B592B0044600200F9010901B
:103340001190C34AD2E900109268CDE90D020C91A8
:10335000002009900A900B90BD4A0C32D2E900106F
:103360009268CDE907020691002003900490059031
:10337000B74A183207CA8DE80700002600250A2040
:10338000FFF752F834B901214620FEF727F9002053
:1033900012B070BD00259FE0002698E004EB4401C8
:1033A000AC4A02EB81000822AB49FFF7A8FE0FA848
:1033B00030F8150004EB4401A64A02EB810149886C
:1033C000884208DA04EB4400114601EB8000408893
:1033D0000FA921F815000CA830F8150004EB4401E2
:1033E0009C4A02EB81018988884208DD04EB440095
:1033F000114601EB800080880CA921F8150004EB30
:103400004401964A02EB810008229549FFF777FEB6
:1034100009A830F8150004EB4401904A02EB810141
:103420004988884208DA04EB4400114601EB800029
:10343000408809A921F8150006A830F8150004EB0A
:103440004401864A02EB81018988884208DD04EB49
:103450004400114601EB8000808806A921F8150080
:1034600004EB44017F4A02EB810008227E49FFF70A
:1034700046FE03A830F8150004EB4401794A02EB3C
:1034800081014988884208DA04EB4400114601EBC7
:103490008000408803A921F815003DF8150004EBD1
:1034A0004401704A02EB81018988884207DD04EB00
:1034B0004400114601EB800080882DF8150014238C
:1034C000002211461046FFF747F8701C86B2322ED4
:1034D000FFF664AF681C85B2052DFFF65DAF0521D0
:1034E0000FA8FEF7D8FB04EB44015A4A02EB810116
:1034F0004880052109A8FEF7CEFB04EB4401574A9A
:1035000002EB81014880052103A8FEF7C4FB04EB10
:103510004401544A02EB8101488005210CA8FEF7C2
:10352000BAFB04EB44014B4A02EB81018880052180
:1035300006A8FEF7B0FB04EB4401484A02EB810108
:10354000888005216846FEF7A6FB04EB4401454A46
:1035500002EB8101888004EB44023E4B03EB8202C4
:10356000518804EB4402414B03EBC200FEF755F8CF
:103570000123002211461046FEF7EEFF04EB440241
:10358000344B03EB8202918804EB4402374B03EB8C
:10359000C202101DFEF741F8012300221146104619
:1035A000FEF7DAFF04EB44022C4B03EB8202518856
:1035B00004EB44022D4B03EBC20202F10800FEF7BC
:1035C0002CF80123002211461046FEF7C5FF04EB3C
:1035D0004402224B03EB8202918804EB4402234B0A
:1035E00003EBC20202F10C00FEF717F801230022E0
:1035F00011461046FEF7B0FF04EB4402194B03EBF3
:103600008202518804EB4402184B03EBC20202F120
:103610001000FEF702F80123002211461046FEF7C3
:103620009BFF04EB44020F4B03EB8202918804EBF7
:1036300044020E4B03EBC20202F11400FDF7EDFF52
:103640000123002211461046FEF786FF00209FE668
:10365000605B00082404002034000020780400206F
:103660003C000020CC040020440000200018010889
:1036700010B5FEF7F5FBFEF7C1FFFEF703FC10BD2A
:10368000134909684FF47A72B1FBF2F0B0F1807F10
:1036900000D31CE020F07F41491E4FF0E022516131
:1036A00000BF5117002905DA0F210901094A0B2330
:1036B000D15404E00F210901074A5317D15400BF28
:1036C00000214FF0E02291610721116100BF704796
:1036D0002000002018ED00E000E400E010B51348E1
:1036E000006840F001001149086008464068104930
:1036F00008400E494860084600680E4908400B49DA
:1037000008600846006820F4802008600846406889
:1037100020F4FE0048604FF41F008860FFF7A2FD10
:103720004FF000600449086010BD00000010024026
:103730000000FFF8FFFFF6FE08ED00E0002400BFE8
:103740000DE0B848042202FB04012020FFF7BBFC77
:1037500004EB4401B44A42F83100601CC4B2042CAA
:10376000EFDB0523002211461046FEF7F5FE00248C
:103770000EE0AC482030042202FB04012020FFF7B9
:10378000A2FC04EB4401A94A42F83100601CC4B217
:10379000042CEEDB0523002211461046FEF7DCFE6A
:1037A00000240EE09F484030042202FB0401202048
:1037B000FFF789FC04EB44019D4A42F83100601C8C
:1037C000C4B2042CEEDB0523002211461046FEF79E
:1037D000C3FE00BF9748007801284CD100240DE0BB
:1037E0009048042202FB04012020FFF76CFC04EB4C
:1037F00044018D4A42F83100601CC4B2042CEFDB56
:103800000523002211461046FEF7A6FE00240EE016
:1038100084482030042202FB04012020FFF753FCDF
:1038200004EB4401814A42F83100601CC4B2042C0C
:10383000EEDB0523002211461046FEF78DFE002424
:103840000EE078484030042202FB04012020FFF7FC
:103850003AFC04EB4401764A42F83100601CC4B2E1
:10386000042CEEDB0523002211461046FEF774FE01
:1038700000207049087000206F4908705220FDF741
:1038800084FE4FF08040808940F002004FF080417C
:1038900088810846808940F0080088816748008850
:1038A00040F00200A1F80C040846B0F80C0440F007
:1038B0000400A1F80C0400BF5F480078FF28FBD18A
:1038C00000205D490870002419E0C4EBC4015C4A83
:1038D00002EB41000621FDF7BDFC5A4921F8140016
:1038E00004EB4400504951F83000564931F81410A7
:1038F000B0FBF1F0534921F81400601CC4B2032C52
:10390000E3DD4720FDF741FE4FF08040808940F025
:1039100002004FF0804188810846808940F008000D
:1039200088814648008840F00200A1F80C0408464F
:10393000B0F80C0440F00400A1F80C0400BF3E48AD
:103940000078FF28FBD100203B490870002419E0D3
:10395000C4EBC4013A4A02EB41000621FDF77AFCB0
:10396000394921F8140004EB4400304951F8300083
:10397000354931F81410B0FBF1F0334921F8140047
:10398000601CC4B2032CE3DD4220FDF7FEFD4FF0C6
:103990008040808940F002004FF0804188810846D5
:1039A000808940F0080088812448008840F00200A7
:1039B000A1F80C040846B0F80C0440F00400A1F88B
:1039C0000C0400BF1C480078FF28FBD100201A49D6
:1039D0000870002419E0C4EBC401194A02EB41004D
:1039E0000621FDF737FC194921F8140004EB4400C7
:1039F0000F4951F83000154931F81410B0FBF1F0BF
:103A0000124921F81400601CC4B2032CE3DD1048F5
:103A10000068FEF7ABFA0223002211461046FEF7BB
:103A20009BFDD7E600F00008E402002044030020DC
:103A3000A403002053000020080000200C040040D4
:103A4000AC020020340000203C0000204400002094
:103A50005800002010B504462CB14FF48071054881
:103A6000FDF715FF04E04FF480710248FDF70DFFEC
:103A700010BD00000008014070B500241022910123
:103A80009A48FDF7EAFD1022D1019848FDF7E5FDBF
:103A9000102211469548FDF7E0FD102220219348A1
:103AA000FDF7DBFD102208219048FDF7D6FD10221E
:103AB00002218F48FDF7D1FD28224FF480518B4819
:103AC000FDF7CBFD102211018848FDF7C6FD10223D
:103AD00051018648FDF7C1FD1420FFF71AF94E2069
:103AE000FDF753FD012000F03BF900BF012020B19C
:103AF00002217F48FDF7CBFE03E002217C48FDF761
:103B0000C4FE00BFFF20FEF763F80124A7E004EB2A
:103B10004400784A02EBC0012020FFF7D4FA04EBFE
:103B20004401754A02EB81014880012300221146BD
:103B30001046FEF711FD04EB44006E4A02EBC00094
:103B4000011D2020FFF7BFFA04EB44016A4A02EB93
:103B5000810188800123002211461046FEF7FCFCFB
:103B600004EB4400634A02EBC00000F1080120208E
:103B7000FFF7A9FA04EB4401604A02EB8101488097
:103B80000123002211461046FEF7E6FC04EB440038
:103B9000584A02EBC00000F10C012020FFF793FA15
:103BA00004EB4401554A02EB810188800123002285
:103BB00011461046FEF7D0FC04EB44004D4A02EBE0
:103BC000C00000F110012020FFF77DFA04EB440152
:103BD0004B4A02EB81014880012300221146104626
:103BE000FEF7BAFC04EB4400424A02EBC00000F1CD
:103BF00014012020FFF767FA04EB4401404A02EB6E
:103C0000810188800123002211461046FEF7A4FCA2
:103C10003C4804EB4401384A02EB810188603A4891
:103C200004EB4401354A02EB81018860374804EB1C
:103C30004401334A02EB810188600A2004EB44010D
:103C40002D4A02F8210004EB44012C4A02F821001D
:103C500004EB44012A4A02F82100601CC4B2072C7C
:103C6000FFF655AF00243DE004EB4400224901EB90
:103C70008000808804EB4401204A02EB810189889E
:103C800090FBF1F52846FCF714FD214941F824008A
:103C900004EB4400194901EB8000808804EB4401E7
:103CA000174A02EB8101898890FBF1F52846FCF761
:103CB00000FD184941F8240004EB44000E4901EBD3
:103CC0008000808804EB44010D4A02EB8101898861
:103CD00090FBF1F52846FCF7ECFC0F4941F8240075
:103CE000601CC4B2072CBFDB70BD0000000801409F
:103CF000000C014000180108240400207804002072
:103D0000CC040020340000203C00002044000020AF
:103D100044050020600500207C05002010B5044605
:103D20002CB14FF400710548FDF7B1FD04E04FF4EC
:103D300000710248FDF7A9FD10BD00000008014018
:103D400010B5044624B102210448FDF7A0FD03E0AC
:103D500002210248FDF799FD10BD0000000C014052
:103D600010B5044624B108210448FDF790FD03E096
:103D700008210248FDF789FD10BD00000008014040
:103D800010B504462CB14FF480610548FDF77FFD66
:103D900004E04FF480610248FDF777FD10BD00009C
:103DA0000008014010B504462CB14FF400610548ED
:103DB000FDF76DFD04E04FF400610248FDF765FD7D
:103DC00010BD00000008014010B5044624B11021C8
:103DD0000448FDF75CFD03E010210248FDF755FDA6
:103DE00010BD00000008014010B5044624B1202198
:103DF0000448FDF74CFD03E020210248FDF745FD96
:103E000010BD000000080140F0B50C461546002228
:103E10000021068C4FF6FE773E400684028B018C13
:103E20004FF60C7632401E0545EA16463243114ED7
:103E3000B0420ED0104EB0420BD0B0F1804F08D03F
:103E40000E4EB04205D00E4EB04202D00D4EB042E2
:103E500006D14FF6FD76314044F00106314305E0CE
:103E60004FF6F576314044F0010631430283018478
:103E7000F0BD0000002C014000340140000400406F
:103E800000080040000C0040F0B50C46154600222A
:103E900000210026078C4FF6EF7C07EA0C07078409
:103EA000028B018C27053E0C40F6FF473A401F0766
:103EB00042EA17422F0642EA1742114FB8420ED08B
:103EC000104FB8420BD0B0F1804F08D00E4FB8421F
:103ED00005D00E4FB84202D00D4FB84206D14FF672
:103EE000DF77394046F01007394305E04FF65F773A
:103EF000394044F01007394302830184F0BD0000CB
:103F0000002C014000340140000400400008004043
:103F1000000C0040F0B50C4615460022002100269A
:103F2000078C4FF6FF6C07EA0C070784828B018C25
:103F300027063E0C4FF60C773A401F0545EA174717
:103F40003A43114FB8420ED0104FB8420BD0B0F1E7
:103F5000804F08D00E4FB84205D00E4FB84202D065
:103F60000D4FB84206D14FF6FF57394046F48077DF
:103F7000394305E04FF2FF57394044F48077394325
:103F800082830184F0BD0000002C01400034014018
:103F90000004004000080040000C0040F0B50C4652
:103FA0001546002200210026078C4EF6FF7C07EA0A
:103FB0000C070784828B018C27073E0C40F6FF47D5
:103FC0003A402F0642EA17421F0742EA1742114FB2
:103FD000B8420ED0104FB8420BD0B0F1804F08D08D
:103FE0000E4FB84205D00E4FB84202D00D4FB84226
:103FF00006D14DF6FF77394046F48057394305E046
:1040000047F6FF57394044F480573943828301848F
:10401000F0BD0000002C01400034014000040040CD
:1040200000080040000C004010B5FDF719FF022108
:10403000480700F021FA012829D14FF6FD708107C9
:1040400008828007818E2D48C2792D4820F81210F1
:104050002A48C079401C2949C8710846C0790628F9
:1040600015D14FF0804080894FF6FD7108408907D7
:10407000888100202149C8712248007840F08000E2
:10408000204908700846007840F040000870082178
:10409000C80600F0F1F901282CD14FF6F7704FF067
:1040A000804108820846818F1448427914481C38A0
:1040B00020F8121011484079401C104948710846F8
:1040C0004079062816D14FF0804080894FF6F7716D
:1040D00008404FF080418881002008494871094814
:1040E000007840F02000074908700846007840F04A
:1040F00010000870FDF7C6FE10BD00000000002093
:104100000E0300200800002010B5FDF7A9FE0221D3
:10411000354800F0B1F901282DD14FF6FD70334933
:1041200008803348018833480279334820F8121058
:104130003048007900F101002E49087108460079E5
:10414000062818D12D4800884FF6FD7100EA0100BD
:104150004FF08041A1F80C044FF000002549087190
:104160002748007840F00800254908700846007884
:1041700040F00400087004211B4800F07DF901287C
:104180002FD14FF6FB70194908801E480188194845
:10419000C2781948A0F10E0020F812101548C07816
:1041A00000F101001349C8700846C078062818D1EC
:1041B000124800884FF6FB7100EA01004FF0804181
:1041C000A1F80C044FF000000A49C8700C480078B0
:1041D00040F002000A4908700846007840F00100EB
:1041E0000870FDF74FFE10BD0004004010040040B1
:1041F0003404004000000020E40200200C040040D1
:10420000080000203804004010B5042201210A48AB
:10421000FDF723FA042211460748FDF71EFA04228F
:1042200040210548FDF719FA042280210248FDF7D4
:1042300014FA00F00FFA10BD0008014010B501217A
:104240000846FEF78FFD01210220FEF78BFD4FF699
:10425000FF720121880700F07DFA4FF6FF720121FD
:10426000024800F077FAFFF7CFFF10BD00040040CE
:10427000CA430282704721B1028842F001020280E3
:1042800004E002884FF6FE731A4002807047000077
:1042900010B504466848844208D10121C014FEF7D5
:1042A00091FD0021E014FEF78DFDC4E0B4F1804FD4
:1042B00008D101210846FEF765FD00210120FEF727
:1042C00061FDB8E05D48844208D101210220FEF77B
:1042D00059FD00210220FEF755FDACE0584884420C
:1042E00008D101210420FEF74DFD00210420FEF736
:1042F00049FDA0E05348844208D101210820FEF77F
:1043000041FD00210820FEF73DFD94E04E48844227
:1043100008D101211020FEF735FD00211020FEF705
:1043200031FD88E04948844208D101212020FEF770
:1043300029FD00212020FEF725FD7CE04448844231
:1043400008D101214014FEF73DFD00216014FEF765
:1043500039FD70E03F48844209D10121C804FEF7CD
:1043600031FD00214FF40020FEF72CFD63E03A48B8
:10437000844209D101210805FEF724FD00214FF4F4
:104380008010FEF71FFD56E03448844209D1012118
:104390004805FEF717FD00214FF40010FEF712FD4F
:1043A00049E02F48844208D101214020FEF7EAFC71
:1043B00000214020FEF7E6FC3DE02A48844208D177
:1043C00001218020FEF7DEFC00218020FEF7DAFCD0
:1043D00031E02548844208D101218015FEF7D2FC46
:1043E0000021A015FEF7CEFC25E02048844209D12B
:1043F00001210804FEF7E6FC00214FF48030FEF7AF
:10440000E1FC18E01A48844209D101214804FEF772
:10441000D9FC00214FF40030FEF7D4FC0BE0154826
:10442000844208D101218804FEF7CCFC00214FF41E
:104430008020FEF7C7FC10BD002C014000040040A6
:1044400000080040000C0040001000400014004034
:1044500000340140004C0140005001400054014034
:1044600000180040001C00400020004000400140B7
:10447000004401400048014030B5024600200023BE
:104480000024158A05EA0103958905EA010413B1A0
:104490000CB1012000E0002030BD000070B50546E1
:1044A0000C46244885420ED0234885420BD0B5F1F6
:1044B000804F08D02148854205D02148854202D04E
:1044C0002048854200D100E000BF208850B92389F0
:1044D000A28861882846FFF797FCE188284600F00B
:1044E0003FF825E0208804280AD12389A288618822
:1044F0002846FFF7C9FCE188284600F03AF817E0A3
:10450000208808280AD12389A28861882846FFF7D5
:1045100001FDE188284600F037F809E02389A288E8
:1045200061882846FFF73AFDE188284600F035F813
:1045300070BD0000002C0140003401400004004028
:1045400000080040000C004010B51AB183890B43ED
:10455000838104E08389CC43A4B22340838110BDCE
:10456000028B4FF6F3731A400283028B0A430283D5
:104570007047028B4FF2FF331A400283028B0B0607
:1045800042EA134202837047828B4FF6F3731A405C
:104590008283828B0A4382837047828B4FF2FF3380
:1045A0001A408283828B0B0642EA13428283704751
:1045B000002202881D4B98420ED01D4B98420BD012
:1045C000B0F1804F08D01B4B984205D01A4B98424F
:1045D00002D01A4B984204D14FF68F731A404B8881
:1045E0001A43174B984207D0164B984204D04FF607
:1045F000FF431A40CB881A4302808B8883850B883F
:1046000003850A4B98420BD0094B984208D00E4BB9
:10461000984205D00D4B984202D00D4B984201D1E3
:104620000B7A03860123838270470000002C01402F
:10463000003401400004004000080040000C00402D
:1046400000100040001400400040014000440140C0
:10465000004801400EB54FF08040FFF719FE0121E0
:104660008807FFF705FE0020ADF80000ADF8020056
:104670000120ADF804000020ADF80600ADF80800F8
:1046800069464FF08040FFF709FF0820ADF80000B1
:104690000020ADF802000120ADF804000020ADF8C4
:1046A0000600ADF8080069464FF08040FFF7F6FEBF
:1046B00000204FF08041888400220A214807FFF73C
:1046C00043FF00214FF08040FFF7D5FD0A21480746
:1046D000FFF7CEFD1D48FFF7DBFD01211B48FFF76B
:1046E000C7FD0020ADF80000ADF802000120ADF8D4
:1046F00004000020ADF80600ADF808006946134834
:10470000FFF7CCFE0420ADF800000020ADF8020059
:104710000120ADF804000020ADF80600ADF8080057
:1047200069460A48FFF7BAFE002009490880024698
:104730004FF006010548FFF707FF00210348FFF788
:104740009AFD06210148FFF793FD0EBD00040040CD
:1047500024040040FEB506460D461446601E80B295
:10476000ADF80400012D06D0022D0AD0032D0FD084
:10477000042D2DD11AE00020ADF80000ADF80600A0
:1047800027E04720ADF800000020ADF8060020E04B
:1047900048F69F40ADF800000020ADF8060001206B
:1047A000C0EB440080B2ADF8040012E048F69F4030
:1047B000ADF800000020ADF8060004EB4400C0EBAB
:1047C000C4100121C1EB001080B2ADF8040000E07C
:1047D00000BF00BF0020ADF8020069463046FFF779
:1047E000E7FE01213046FFF743FD01213046FFF788
:1047F00042FDFEBD00BFFDF74FF80749088008469F
:10480000018806A000F044FF012300221146104653
:10481000FDF7A2FEEFE700004E000020646973740C
:10482000616E63653A25640A0D0000000820FDF7FB
:10483000FBFD00BFFCF7CEFC6420064A1080014659
:104840000620FCF7C9F90523002211461046FDF7A2
:1048500083FEEFE74E00002010B50446FEF76EFF22
:1048600010BD000000BF6149088800221146FDF715
:104870000AF95F49088800220621FDF704F95D491D
:10488000088800220C21FDF7FEF8584948880122CB
:104890000021FDF7F8F85649488801220621FDF766
:1048A000F2F85449488801220C21FDF7ECF84F49F1
:1048B000888802220021FDF7E6F84D498888022207
:1048C0000621FDF7E0F84B49888802220C21FDF70C
:1048D000DAF84649C88803220021FDF7D4F8444994
:1048E000C88803220621FDF7CEF84249C888032272
:1048F0000C21FDF7C8F83D49088904220021FDF785
:10490000C2F83B49088904220621FDF7BCF8394961
:10491000088904220C21FDF7B6F83449488905229C
:104920000021FDF7B0F83249488905220621FDF73C
:10493000AAF83049488905220C21FDF7A4F82B4933
:10494000888906220021FDF79EF8294988890622D8
:104950001146FDF798F82749888906220C21FDF7B2
:1049600092F82249C88907220021FDF78CF82049D6
:10497000C88907220621FDF786F81E49C889FBF77A
:10498000A1FE05461949C889FBF79CFE0646294643
:10499000FBF7CAFC044607220C212046FDF760F80D
:1049A0000222122114480078FDF76DF8042212212A
:1049B00012480078FDF767F80522122110480078A8
:1049C000FDF761F8062212210E480078FDF75BF82A
:1049D000072212210C480088FDF755F8C823002251
:1049E00011461046FDF7B8FD3DE7000034000020F9
:1049F0003C00002044000020520000205100002014
:104A0000500000204C0000204E0000200620FDF742
:104A10000BFD00BFFCF7ECFF0620FDF705FDF9E7F5
:104A20000920FDF701FD00BF0020FFF789F90548C7
:104A30000078FEF77FFC0120FFF782F90920FDF7DF
:104A4000F3FCF1E752000020FBF78EFB04460C2339
:104A5000254A00212548FDF7DFFA0723244A0021D3
:104A60002448FDF7D9FA0523234A00212348FDF7FE
:104A7000D3FA0A23224A00212248FDF7CDFA0B235C
:104A8000214A00212148FDF7C7FA0923204A0021C5
:104A90002048FDF7C1FA06231F4A00211F48FDF7F1
:104AA000BBFA08231E4A00211E48FDF7B5FA012073
:104AB000FDF730FA1C4908600120FDF72BFA1B496D
:104AC00008600120FDF726FA194908602046FBF727
:104AD0004FFB00BF0420FDF7A7FC64230022114612
:104AE0001046FDF739FDF5E79407002065480008FA
:104AF000940B002059480008940D0020C54E000872
:104B000094110020F547000894130020354B00084D
:104B100094170020214A0008941900200D4A00082B
:104B2000941B00202D480008580000205C00002045
:104B30006000002000240B20FDF776FC00BF00245D
:104B400006E00523002211461046FDF705FD641C12
:104B5000322CF6DB0120FFF7F3F80B20FDF764FCA5
:104B60000523002211461046FDF7F6FCE7E700009A
:104B700010B5FDF775F940F22551334800F0ABF858
:104B8000A0B3314800F062F9C4B2A4F130000A28A1
:104B900050D2DFE800F0050F1920242C333A4148A9
:104BA0000A20FDF741FC0820FDF73EFC0020FFF73E
:104BB000D7F840E00A20FDF73BFB0820FDF734FC66
:104BC0000120FFF7CDF836E00A20FDF72DFC082084
:104BD000FDF72EFB2FE00520FDF72AFB2BE0092037
:104BE000FDF726FB00201949087024E029E0092080
:104BF000FDF71EFB0120154908701CE00920FDF798
:104C000017FB02201149087015E00920FDF710FB81
:104C100003200E4908700EE00920FDF709FB04206F
:104C20000A49087007E00920FDF702FB0520074943
:104C3000087000E000BF00BF40F22551024800F0BC
:104C400007F8FDF71FF910BD004800405200002092
:104C500010B500220023A1F510646A3C00D100BF0A
:104C60000A1201249440A3B2DC43048010BD21B198
:104C7000828942F40052828104E082894DF6FF73FA
:104C80001A4082817047000010B501218804FEF7A8
:104C900069F818224FF480610648FCF7DEFC042214
:104CA00051020448FCF7D9FC4FF4E131024800F00E
:104CB000D6F810BD000C014000480040024600201C
:104CC000B1F5007F00D100BF13880B4201D0012055
:104CD00000E00020704770B5024600240023002544
:104CE0000020A1F510666A3E00D100BFC1F3421555
:104CF00001F01F03012606FA03F3012D02D1968964
:104D0000334006E0022D02D1168A334001E0968A34
:104D100033400C12012606FA04F41688344013B10D
:104D20000CB1012000E0002070BDF0B50346002466
:104D3000002600250020A1F510676A3F00D100BFC2
:104D40001846C1F3421401F01F06012707FA06F5C1
:104D5000012C01D10C3004E0022C01D1103000E014
:104D600014301AB107682F43076002E00768AF43A9
:104D70000760F0BD2DE9F04786B005460E460024D9
:104D8000A24600BFA1460027B08900B100BF2F4650
:104D90002C8A4CF6FF700440F08804432C82AC89C6
:104DA0004EF6F3100440B0883189084371890843F6
:104DB0000443AC81AC8A4FF6FF400440B089044301
:104DC000AC8201A8FEF766F81F48874202D1DDF8E1
:104DD00010A001E0DDF80CA0A88910F4004F08D065
:104DE0000AEBCA0000EB0A1031684900B0FBF1F889
:104DF00007E00AEBCA0000EB0A1031688900B0FB3B
:104E0000F1F86420B8FBF0F004012009642101FBF3
:104E10001089A88910F4004F08D0322000EBC90097
:104E2000B0FBF1F000F00700044308E0322000EB93
:104E300009106421B0FBF1F000F00F0004432C8155
:104E400006B0BDE8F08700000038014001468888C0
:104E5000C0F308007047C1F30802828070477FB535
:104E600005460C4600940020ADF80400ADF806009D
:104E7000ADF80800ADF80C000C20ADF80A0069464A
:104E80002846FFF777FF01212846FFF7F0FE40F2A2
:104E900025512846FFF7DCFE40F226612846FFF741
:104EA000D7FE012240F225512846FFF73EFF7FBD85
:104EB00010B5FCF7D5FFFBF731FEFCF7E3FF10BDA3
:104EC00000BFFEE700BF012020B108211648FCF713
:104ED000DEFC03E008211448FCF7D7FC00BF4FF4C8
:104EE000FA73002211461046FDF736FB01218807B0
:104EF000FFF7C1F901210D48FFF7BDF901210C4869
:104F0000FFF7B9F90520FDF78FFA00BF0020FEF783
:104F100017FF4FF47A7000F00DF80120FEF710FF34
:104F20000520FDF781FAF1E7000801400004004088
:104F30000008004070B506460024002500BF13E0BD
:104F40000020FEF70DFFC823002211461046FDF792
:104F500003FB0120FEF704FFC82300221146104680
:104F6000FDF7FAFA601CC4B2032CE9DB0025CDE0A2
:104F70000020A74908705220FCF707FB4FF0804043
:104F8000808940F002004FF0804188810846808986
:104F900040F0080088819F48008840F00200A1F896
:104FA0000C040846B0F80C0440F00400A1F80C040E
:104FB00000BF97480078FF28FBD100209449087073
:104FC000002419E0C4EBC401934A02EB410006211E
:104FD000FCF740F9914921F81400084630F8141004
:104FE000B0B2FEF769F804EB44018D4A02EBC1014F
:104FF00041F82500601CC4B2042CE3DD4720FCF717
:10500000C4FA4FF08040808940F002004FF08041A8
:1050100088810846808940F0080088817D480088A2
:1050200040F00200A1F80C040846B0F80C0440F06F
:105030000400A1F80C0400BF75480078FF28FBD1DC
:10504000002073490870002419E0C4EBC401724ABF
:1050500002EB41000621FCF7FDF8724921F814002B
:10506000084630F81410B0B2FEF726F804EB4401FD
:105070006D4A02EBC10141F82500601CC4B2042C4A
:10508000E3DD4220FCF781FA4FF08040808940F058
:1050900002004FF0804188810846808940F0080076
:1050A00088815C48008840F00200A1F80C040846A2
:1050B000B0F80C0440F00400A1F80C0400BF544800
:1050C0000078FF28FBD1002051490870002419E026
:1050D000C4EBC401504A02EB41000621FCF7BAF8C8
:1050E000524921F81400084630F81410B0B2FDF708
:1050F000E3FF04EB44014E4A02EBC10141F82500F5
:10510000601CC4B2042CE3DD681CC5B2062DFFF69A
:105110002FAF002419E004EB4401414A02EBC10027
:105120000621FCF7DFFD04EB44013F4A02EBC1001E
:105130000621FCF7D7FD04EB44013D4A02EBC10018
:105140000621FCF7CFFD601CC4B2062CE3DB012175
:105150003C20FCF743FA002412E004EB4402304BFD
:1051600003EBC202D168334A02EB8400FCF755FA24
:105170000123002211461046FDF7EEF9601CC4B26F
:10518000042CEADB0A23002211461046FDF7E4F95D
:10519000002413E004EB4402234B03EBC202D1686A
:1051A000244A203202EB8400FCF737FA0123002264
:1051B00011461046FDF7D0F9601CC4B2042CE9DB9F
:1051C0000A23002211461046FDF7C6F9002413E019
:1051D00004EB4402164B03EBC202D168154A40327D
:1051E00002EB8400FCF719FA012300221146104655
:1051F000FDF7B2F9601CC4B2042CE9DB01200E49B2
:1052000008701423002211461046FDF7A5F970BD61
:10521000080000200C040040AC02002034000020F4
:10522000E40200203C000020440300204400002051
:10523000A403002000F00008530000202DE9F74FE0
:1052400088B000200690059004900A990888FBF722
:1052500039FAFF4908600A994888FBF733FAFC4994
:1052600048600A998888FBF72DFAF94988600A99FD
:10527000C888FBF727FAF649C86000270A98008813
:10528000069000260FE0781C0A9931F81010069855
:10529000814206DA781C0A9931F810000690781CD1
:1052A000C6B2781CC7B2032FEDDB0121B140C8B2F2
:1052B000FCF78EFC0A9931F81610BDF82420881AE4
:1052C000FBF7A2FB962804DA5A2005900BB0BDE844
:1052D000F08FBDF82210BDF82420881AFBF7F7F9EB
:1052E00082460022DB4BFBF704F904460D460A997F
:1052F00031F81610BDF82420881AFBF7E8F980462B
:1053000022462B46FBF74AFA08D2012E03DC012085
:10531000D149087002E00220CF490870BDF8221080
:10532000CE4A1288881AFBF7D2F980460022CC4B6D
:10533000FBF750F90446FBF745FA0490F6BB711CE5
:105340000A9A32F81110BDF82420881AFBF7B1F937
:1053500005460499FAF7E8FF0446C249FBF758FAF4
:105360002DD8711C0A9A32F81110BDF82420881A21
:10537000FBF79FF983460499FAF7D6FF8246FBF7BD
:10538000E2F904460022B84BFBF7B0F8CDE9000182
:10539000C6F10300FBF79BF904460022B04BFBF774
:1053A000A8F88046DDE90023FAF7FEFFCDE9020107
:1053B000FBF7B2F980B20590059887E71FE00A99DC
:1053C00031F81610BDF82420881AFBF772F9029004
:1053D0000499FAF7A9FF0390FBF7B5F904460022F8
:1053E0009F4BFBF783F882460022A04BFAF7DCFFC5
:1053F0008046FBF791F980B20590059866E7032E89
:105400005CD1711E0A9A32F81110BDF82420881A56
:10541000FBF74FF905460499FAF786FF04469149D0
:10542000FBF7F6F92AD8711E0A9A32F81110BDF866
:105430002420881AFBF73DF900900499FAF774FFCD
:105440000190FBF780F980460022874BFBF74EF86E
:10545000CDE90201301FFBF73AF980460022804B6C
:10546000FBF747F80446DDE90223FAF79DFF824681
:10547000FBF752F980B20590059827E70A9931F8B1
:105480001610BDF82420881AFBF713F9029004992E
:10549000FAF74AFF0390FBF756F982460022704B59
:1054A000FBF724F804460022704BFAF77DFF804694
:1054B000FBF732F980B20590059807E7012E69DC09
:1054C000701C0A9931F81010701E0A9A32F81000F8
:1054D00081422CDA711C0A9A32F81110BDF824208E
:1054E000881AFBF7E6F883460499FAF71DFF82460F
:1054F000FBF729F9044600225B4BFAF7F7FFCDE9E9
:105500000201C6F10100FBF7E2F804460022544B09
:10551000FAF7EFFFCDE90001DDE90223FAF744FFD6
:105520008046FBF7F9F880B205900598CEE6711E2B
:105530000A9A32F81110BDF82420881AFBF7B9F83E
:1055400081460499FAF7F0FE8046FBF7FCF8044622
:105550000022474BFAF7C7FF82468B46C6F101008F
:10556000FBF7B5F8044600223D4BFAF7C2FF804630
:105570000022404BFAF718FF52465B46CDE9000186
:10558000FAF712FFCDE90201FBF7C6F880B20590E9
:1055900005989BE6701C0A9931F81010701E0A9A43
:1055A00032F8100081422CDD711E0A9A32F8111077
:1055B000BDF82420881AFBF77CF800900499FAF7CC
:1055C000B3FE0190FBF7BFF80022274BCDE90201A3
:1055D000FAF78CFF82468B46B01EFBF778F8002264
:1055E0001F4BCDE90201FAF784FF044652465B46A1
:1055F000FAF7DAFE8046FBF78FF880B2059005983F
:1056000064E6711C0A9A32F81110BDF82420881A39
:10561000FBF74FF881460499FAF786FE8046FBF7C0
:1056200092F804460022124BFAF75DFF82468B4641
:10563000B01EFBF74CF804460022094BFAF759FF5D
:10564000804600220B4BFAF7AFFE52465B4613E052
:10565000040400200000D03F4C0000205400002033
:10566000000034400000404000002E400040524006
:105670000000144000002440CDE90001FAF794FE38
:10568000CDE90201FBF748F880B2059005981DE6C8
:105690000FB4054B10B503A9044A029800F018F89E
:1056A00010BC5DF814FB0000C9580008A8000020D9
:1056B00002E008C8121F08C1002AFAD170477047DB
:1056C000002001E001C1121F002AFBD17047000039
:1056D0002DE9FF4F89B004469B46002597E0252819
:1056E00032D10027641C4E4AB84601212378203B62
:1056F00001FA03F0104202D00743641CF6E7207859
:105700002E2819D114F8010F47F004072A280ED0CB
:105710006FF02F022078A0F1300109290CD808EB96
:10572000880102EB410100EB0108641CF2E70A98D2
:10573000641C50F8048B0A902078F0B3642808D0D9
:10574000692806D075281FD05A460B9990476D1CC2
:105750005CE00A994FF00A0901C90A91002804DAAD
:10576000C0F100004FF02D0102E0390504D52B21D6
:105770008DF82010012104E0F90701D02021F7E77E
:1057800000218A4608AE0CE00A994FF00A0901C9C7
:105790000A91F5E74946FBF745F801F1300106F8B3
:1057A000011D0028F6D1ADEB060000F120097807B5
:1057B00001D44FF00108002000E02CE041464A46A9
:1057C000C84500DD881A8046002706E008A85A462A
:1057D000C05D0B9990476D1C7F1C5745F6DB04E0BC
:1057E00030205A460B9990476D1CB8F10001A8F182
:1057F0000108F5DC05E016F8010B5A460B999047B5
:105800006D1CB9F10001A9F10109F4DC641C2078D8
:1058100000287FF464AF0DB02846BDE8F08F00008B
:10582000092801002DE9F04781460C46234E00214E
:105830004846FAF7E3FF04D22D2004F8010B89F063
:1058400000491F494846FAF739FD8246FAF750FFEA
:105850000746092508E0B7FBF6F000B106E00A208C
:10586000B6FBF0F6681EC5B2032DF4DC00BF681C61
:10587000C5B24FF000081BE0A5EB0800032810D0CC
:1058800006EB86004000B7FBF0F100FB1170B0FBA7
:10589000F6F00C49085C04F8010B0A20B6FBF0F6A0
:1058A00002E02E2004F8010B08F1010000F0FF08CF
:1058B000A845E1DD00202070BDE8F08700CA9A3BD2
:1058C00000007A447459000870B504460D46E1B2F0
:1058D0000548FFF7C0FA00BF40210348FFF7EEF983
:1058E0000028F9D0204670BD0048004010B502469F
:1058F0001448002A03DA2D2301F8013B524200BF6D
:10590000B2FBF0F30BB9012800D103E00A23B0FB8E
:10591000F3F0F5E700BF0FE000EB80035B00B2FBA4
:10592000F3F403FB1423B3FBF0F3074CE35C01F83F
:10593000013B0A23B0FBF3F00028EDD100230B70EC
:1059400010BD000000CA9A3B7459000810B5FBF75F
:1059500062F8FCF771FA0423044A00210448FCF7BA
:105960005BFBFCF733FB002010BD0000A802002009
:10597000494A0008303132333435363738394142FC
:105980004344454600000000000000002F000000D6
:1059900007000700147F147F14242A7F2A126264F0
:1059A00008132336495522500005030000001C222D
:1059B00041000041221C0014083E081408083E085B
:1059C000080000A0600008080808080060600000E7
:1059D00020100804023E5149453E00427F400042EB
:1059E000615149462141454B311814127F1027451A
:1059F0004545393C4A494930017109050336494951
:105A00004936064949291E00363600000056360040
:105A10000008142241001414141414004122140824
:105A20000201510906324959513E7C1211127C7F04
:105A3000494949363E414141227F4141221C7F492B
:105A40004949417F090909013E4149497A7F0808CE
:105A5000087F00417F41002040413F017F08142220
:105A6000417F404040407F020C027F7F0408107F4E
:105A70003E4141413E7F090909063E4151215E7F79
:105A800009192946464949493101017F01013F4031
:105A900040403F1F2040201F3F4038403F631408D4
:105AA000146307087008076151494543007F41416D
:105AB00000552A552A550041417F00040201020485
:105AC0000040404040000102040020545454787FBC
:105AD000484444383844444420384444487F385487
